:10000000F6C0000046C7000019C70000ECC600009B
:10001000BFC6000092C6000065C6000038C60000DA
:100020000BC6000014C1000012C1000010C1000086
:100030000EC100000CC100000AC1000008C1000090
:1000400006C1000004C1000002C1000000C10000A0
:100050004BC70000FCC00000FAC00000A3C50000B0
:10006000F6C0000069C500003EC50000F0C00000F9
:10007000EEC00000ECC00000EAC00000E8C00000D4
:10008000E6C00000E4C00000E2C00000E0C00000E4
:10009000DEC00000DCC00000DAC00000D8C00000F4
:1000A000D6C00000D4C00000D2C00000D0C0000004
:1000B000CEC00000CCC00000CAC00000C8C0000014
:1000C000C6C00000C4C00000C2C00000C0C0000024
:1000D000BEC00000BCC00000BAC00000B8C0000034
:1000E000B6C0000000002100240027002A002D00D7
:1000F0003000330001010000040107010A01000083
:100100002200250028002B002E00310034000201BF
:100110000000050108010B01050505050705080894
:100120000808020202020A0A080804040404010181
:100130000101010101010303030303030303040796
:1001400007070C0C0C0C0C0C0C0C0202020206062D
:100150000606060606060B0B0B0B0B0B0B0B010220
:1001600010202008081020401020408002010201C9
:100170000804020101020408102040808040201081
:1001800008040201800402018040201008040201DA
:100190000804020101020408102040800102040842
:1001A0001020408000000A0B02090C0D0E08070306
:1001B000040100000000000000000000000000003A
:1001C000000000000000000000000000000000002F
:1001D00012111000000000000000000000000000EC
:1001E000000000000000000000009F0761091124CA
:1001F0001FBECFEFD1E2DEBFCDBF00E00CBF23E0DA
:10020000AEE3B2E001C01D92A232B207E1F712E004
:10021000A0E0B2E0ECE7F7E100E00BBF02C007901E
:100220000D92AE33B107D9F710E0C6EFD0E000E091
:1002300006C021970109802FFE010E948B09C53F4E
:10024000D10780E00807A9F7D0D60C94AD0BD8CE23
:10025000AF92BF92CF92DF92EF92FF920F931F93D4
:10026000CF93DF936C017B018B01040F151FEB0112
:100270005E01AE18BF08C017D10759F06991D601C9
:10028000ED91FC910190F081E02DC6011995892B2B
:1002900079F7C501DF91CF911F910F91FF90EF90FA
:1002A000DF90CF90BF90AF900895FC01538D448DA7
:1002B000252F30E0842F90E0821B930B541710F011
:1002C000CF96089501970895FC01918D828D98171E
:1002D00061F0A28DAE0FBF2FB11D5D968C91928DF6
:1002E0009F5F9F73928F90E008958FEF9FEF089527
:1002F000FC01918D828D981731F0828DE80FF11DF0
:10030000858D90E008958FEF9FEF0895FC01918D0A
:10031000228D892F90E0805C9F4F821B91098F7303
:100320009927089583E692E0F1DF21E0892B09F413
:1003300020E0822F0895FC01A48DA80FB92FB11DD4
:10034000A35ABF4F2C91848D90E001968F7399270B
:10035000848FA689B7892C93A089B1898C918370E9
:1003600080648C93938D848D981306C00288F389E2
:10037000E02D80818F7D80830895EF92FF920F930F
:100380001F93CF93DF93EC0181E0888F9B8D8C8D41
:1003900098131AC0E889F989808185FF15C09FB735
:1003A000F894EE89FF896083E889F98980818370F8
:1003B000806480839FBF81E090E0DF91CF911F91A7
:1003C0000F91FF90EF900895F62E0B8D10E00F5FC8
:1003D0001F4F0F731127E02E8C8D8E110BC00FB69F
:1003E00007FCFACFE889F989808185FFF5CFCE0136
:1003F000A2DFF2CFEB8DEC0FFD2FF11DE35AFF4F83
:10040000F0829FB7F8940B8FEA89FB898081806224
:10041000D0CFCF93DF93EC01888D8823B1F0AA89E8
:10042000BB89E889F9898C9185FD03C0808186FDAF
:100430000CC00FB607FCF7CF8C9185FFF2CF8081FF
:1004400085FFEDCFCE0177DFEACFDF91CF91089521
:1004500080E090E0892B21F065DF81110E9400008F
:1004600080E090E0892B49F080E090E0892B29F032
:100470000E94000081110E94000080E090E0892B22
:1004800049F080E090E0892B29F00E940000811162
:100490000E94000080E090E0892B49F080E090E02D
:1004A000892B29F00E94000081110C94000008950E
:1004B000282F30E0F901EC55FE4F9491F901E25AF2
:1004C000FE4F4491285E3E4FF9012491222309F406
:1004D00034C0992309F191509231F0F4E92FF0E002
:1004E0008827EB58FD4F8F4F16C7A602AA02870236
:1004F0009E02A2028C02AD02B302B702BD02C1028B
:10050000C502CB02CF028C02D302D902DD02809158
:1005100080008F7780938000E22FF0E0EE0FFF1FC6
:10052000E250FF4FA591B4918FB7F894EC9161110F
:1005300048C040954E234C938FBF08958091800012
:100540008F7DE8CF80918000877FE4CF84B58F775F
:1005500084BDE2CF84B58F7DFBCF8091B0008F77D3
:100560008093B000D9CF8091B0008F7DF9CF80917A
:1005700090008F7780939000CFCF809190008F7DF7
:10058000F9CF80919000877FF5CF8091A0008F7781
:100590008093A000C1CF8091A0008F7DF9CF809182
:1005A000A000877FF5CF809120018F778093200175
:1005B000B3CF809120018F7DF9CF80912001877F7B
:1005C000F5CF4E2BB8CFCF93DF9390E0FC01E25AEA
:1005D000FE4F2491885E9E4FFC0184918823D1F0C8
:1005E00090E0880F991FFC01EC51FF4FA591B49149
:1005F000FC01E250FF4FC591D49161110EC09FB72D
:10060000F8948C91E22FE0958E238C932881E2233D
:10061000E8839FBFDF91CF9108958FB7F894EC9155
:10062000E22BEC938FBFF6CFE82FF0E0DF01AA0FAB
:10063000BB1FA050BE4F11967C936E93883008F07C
:1006400068C08827EF5DFC4F8F4F65C65C0364036D
:100650002E03360342034F0370037D03809169002C
:100660008C7F482B40936900E89A08958091690037
:10067000837F440F551F440F551F482B409369003B
:10068000E99A0895809169008F7C74E0440F551FAA
:100690007A95E1F7482B40936900EA9A0895809192
:1006A00069008F7366E0440F551F6A95E1F7482B88
:1006B00040936900EB9A089580916A008C7F482BE3
:1006C00040936A00EC9A089580916A00837F440FFA
:1006D000551F440F551F482B40936A00ED9A08950B
:1006E00080916A008F7C24E0440F551F2A95E1F722
:1006F000482B40936A00EE9A089580916A008F73A8
:1007000096E0440F551F9A95E1F7482B40936A00F5
:10071000EF9A08950895089590E080E00895CF93AA
:10072000DF93EC0160E08E81C3DE61E08E81C0DE8C
:1007300060E08E81BDDE8BE891E00197F1F7DF91FB
:10074000CF910895CF92DF92EF92FF920F931F9374
:10075000CF93DF936C017C0187E0E80EF11CD0E0C1
:10076000C0E0062F10E0B8010C2E02C07595679509
:100770000A94E2F76170F70181917F0199DE219679
:10078000C430D10581F7C601DF91CF911F910F9140
:10079000FF90EF90DF90CF90C2CFCF92DF92EF9299
:1007A000FF920F931F93CF93DF93EC01F62E642FEC
:1007B0008C817EDE8D818F3F11F060E079DE0F2D20
:1007C00010E08F8584FF23C06E0187E0C80ED11C26
:1007D000F12CE12CB8010E2C02C0759567950A9496
:1007E000E2F76170F60181916F0162DEFFEFEF1AAF
:1007F000FF0A88E0E816F10469F7CE01DF91CF9196
:100800001F910F91FF90EF90DF90CF9088CFB801AC
:1008100084E0759567958A95E1F7CE0193DF6F2D9A
:10082000CE01DF91CF911F910F91FF90EF90DF905C
:10083000CF9088CFCF93DF93823029F49091150326
:100840009860909315038093190310921A0380E423
:1008500080931B0380E180931C0380E580931D033C
:1008600061E080910A03AFDE80910B038F3F11F0AE
:1008700061E0A9DE61E080910C03A5DEC6E0D3E073
:100880009E01265033408091150384FD0AC084E008
:1008900090E02196281739073CF461E08E8193DEC1
:1008A000EFCF88E090E0F5CF8BE39DE00197F1F783
:1008B00060E080910A03FCDD60E080910C03F8DDCC
:1008C00080910B038F3F11F060E0F2DD6091150322
:1008D00064FD3DC063E086E093E034DFCBE4D6E422
:1008E000CE010197F1F763E086E093E02BDF2197DB
:1008F000F1F763E086E093E025DF83E592E001977E
:10090000F1F762E086E093E01DDF6091150360621D
:1009100040E086E093E041DF84E08093160340E00E
:100920006CE086E093E039DF40E061E086E093E050
:1009300034DF8BE39FE10197F1F782E080931703A7
:1009400040E066E086E093E0DF91CF9126CF6062E1
:1009500040E086E093E021DF8BE496E40197F1F735
:1009600060911503606240E086E093E016DF83E566
:1009700092E00197F1F760911503606240E086E034
:1009800093E00BDFC2CF41E008DF81E090E0089503
:100990000F931F93CF93DF938C01EB0180910003A2
:1009A00090910103009739F02091020330910303E5
:1009B00026173707B0F4BE016F5F7F4FD9D5009778
:1009C000D9F09093010380930003D0930303C09365
:1009D00002032091040330910503232B11F4FC0141
:1009E0001082D0930503C0930403B80180910003E3
:1009F00090910103ABD613C0809100039091010345
:100A0000009709F02CD51092010310920003109268
:100A1000050310920403109203031092020380E076
:100A200093E0DF91CF911F910F910895E0916102C2
:100A3000F0916202EE0FFF1FE35BFD4F1182108207
:100A400064E070E084E392E0A3CFE0916102F09172
:100A50006202EE0FFF1FE35BFD4F81E090E09183A8
:100A6000808363E070E089E392E092CFCF93DF93DD
:100A70008091040390910503892B91F1C0910003AB
:100A8000D091010369E372E0CE0157D6892B91F42E
:100A90008091610290916202FC01EE0FFF1FE35B07
:100AA000FD4F21E030E03183208301969093620274
:100AB0008093610264E372E0CE013FD6892B81F41A
:100AC0008091610290916202FC01EE0FFF1FE35BD7
:100AD000FD4F118210820196909362028093610211
:100AE000DF91CF9108951F920F920FB60F921124AC
:100AF0000BB60F922F933F934F935F936F937F9318
:100B00008F939F93AF93BF93EF93FF9383E692E00E
:100B100012DCFF91EF91BF91AF919F918F917F91E7
:100B20006F915F914F913F912F910F900BBE0F905E
:100B30000FBE0F901F9018951F920F920FB60F9235
:100B400011240BB60F922F938F939F93EF93FF93E4
:100B5000E0917302F09174028081E0917902F0914A
:100B60007A0282FD1DC0908180917C028F5F8F731D
:100B700020917D02821741F0E0917C02F0E0ED5976
:100B8000FD4F958F80937C02FF91EF919F918F9104
:100B90002F910F900BBE0F900FBE0F901F901895C6
:100BA0008081F2CF1F920F920FB60F9211242F93D4
:100BB0003F938F939F93AF93BF9380914302909104
:100BC0004402A0914502B09146023091420223E0D6
:100BD000230F2D3758F50196A11DB11D2093420218
:100BE0008093430290934402A0934502B09346023F
:100BF00080913E0290913F02A0914002B09141024B
:100C00000196A11DB11D80933E0290933F02A093D7
:100C10004002B0934102BF91AF919F918F913F915C
:100C20002F910F900FBE0F901F90189526E8230F5D
:100C30000296A11DB11DD2CF1F920F920FB60F9237
:100C400011240BB60F922F933F934F935F936F93A3
:100C50007F938F939F93AF93BF93EF93FF93E09115
:100C60000E02F0910F021995FF91EF91BF91AF9194
:100C70009F918F917F916F915F914F913F912F91B4
:100C80000F900BBE0F900FBE0F901F9018951F92E4
:100C90000F920FB60F9211240BB60F922F933F9322
:100CA0004F935F936F937F938F939F93AF93BF9374
:100CB000EF93FF93E0910C02F0910D021995FF91D3
:100CC000EF91BF91AF919F918F917F916F915F91C4
:100CD0004F913F912F910F900BBE0F900FBE0F9031
:100CE0001F9018951F920F920FB60F9211240BB6FA
:100CF0000F922F933F934F935F936F937F938F93B5
:100D00009F93AF93BF93EF93FF93E0910202F09113
:100D100003021995FF91EF91BF91AF919F918F9130
:100D20007F916F915F914F913F912F910F900BBEEB
:100D30000F900FBE0F901F9018951F920F920FB635
:100D40000F9211240BB60F922F933F934F935F9303
:100D50006F937F938F939F93AF93BF93EF93FF9383
:100D6000E0910002F09101021995FF91EF91BF917E
:100D7000AF919F918F917F916F915F914F913F9133
:100D80002F910F900BBE0F900FBE0F901F901895D4
:100D90001F920F920FB60F9211240BB60F922F9342
:100DA0003F934F935F936F937F938F939F93AF93F3
:100DB000BF93EF93FF93E0910A02F0910B02199514
:100DC000FF91EF91BF91AF919F918F917F916F9123
:100DD0005F914F913F912F910F900BBE0F900FBEDF
:100DE0000F901F9018951F920F920FB60F9211241B
:100DF0000BB60F922F933F934F935F936F937F9315
:100E00008F939F93AF93BF93EF93FF93E09108026B
:100E1000F09109021995FF91EF91BF91AF919F91C8
:100E20008F917F916F915F914F913F912F910F9093
:100E30000BBE0F900FBE0F901F9018951F920F9230
:100E40000FB60F9211240BB60F922F933F934F932F
:100E50005F936F937F938F939F93AF93BF93EF9322
:100E6000FF93E0910602F09107021995FF91EF912F
:100E7000BF91AF919F918F917F916F915F914F91B2
:100E80003F912F910F900BBE0F900FBE0F901F90B0
:100E900018951F920F920FB60F9211240BB60F9256
:100EA0002F933F934F935F936F937F938F939F9372
:100EB000AF93BF93EF93FF93E0910402F09105028B
:100EC0001995FF91EF91BF91AF919F918F917F9174
:100ED0006F915F914F913F912F910F900BBE0F90AB
:100EE0000FBE0F901F9018951F920F920FB60F9282
:100EF00011240BB60F922F933F934F935F936F93F1
:100F00007F938F939F93AF93BF93EF93FF93E09162
:100F10004B02F0914C021995FF91EF91BF91AF9167
:100F20009F918F917F916F915F914F913F912F9101
:100F30000F900BBE0F900FBE0F901F901895E3E619
:100F4000F2E01382128288EE93E0A0E0B0E08483A6
:100F50009583A683B7838AE192E09183808385ECB1
:100F600090E09587848784EC90E09787868780EC73
:100F700090E0918B808B81EC90E0938B828B82EC64
:100F800090E0958B848B86EC90E0978B868B118E0E
:100F9000128E138E148EE6E0F3E0138212828CE23E
:100FA00092E0918380838CE084838FEF85838BE054
:100FB00086838AE0878389E0808783E0818782E077
:100FC00082871386148615861686178681E032DCA2
:100FD000E0E0F3E011821082138212821582148203
:100FE00064E070E084E392E0D3CCCF93DF93CDB79D
:100FF000DEB7A1970FB6F894DEBF0FBECDBF7894D1
:1010000084B5826084BD84B5816084BD85B582600D
:1010100085BD85B5816085BD80916E0081608093BE
:101020006E00109281008091810082608093810027
:101030008091810081608093810080918000816037
:10104000809380008091B10084608093B100809192
:10105000B00081608093B0008091910082608093A5
:101060009100809191008160809391008091900027
:101070008160809390008091A10082608093A100A4
:101080008091A10081608093A1008091A000816087
:101090008093A00080912101826080932101809142
:1010A00021018160809321018091200181608093E2
:1010B000200180917A00846080937A0080917A0088
:1010C000826080937A0080917A00816080937A00B8
:1010D00080917A00806880937A001092C100E0913C
:1010E0007302F091740282E08083E0916F02F091CC
:1010F00070021082E0917102F09172028FEC808395
:1011000010927B02E0917702F091780286E0808372
:10111000E0917502F0917602808180618083E09198
:101120007502F0917602808188608083E09175027B
:10113000F0917602808180688083E0917502F09161
:10114000760280818F7D808382E074DB61E084E0C1
:101150003ADA61E085E037DA61E086E034DA61E0CE
:1011600087E031DA60E088E02EDA61E084E0A0D93F
:1011700060E085E09DD91092800080E1809381003D
:1011800084E0809349028FB780934A02F89482E109
:101190009AE7909348028093470290938700809348
:1011A000860080914A028FBF80918100887F809362
:1011B00081009091810020914902922B90938100AF
:1011C00086E395E090934C0280934B0281E08093FC
:1011D0006F0080918100822B809381003AE0832E02
:1011E000912CA12CB12C80916102909162020997FF
:1011F00009F065C010926202109261028091610252
:10120000909162028A3091050CF059C0880F991FA5
:10121000FC01E35BFD4FC080D1800D2C000CEE087B
:10122000FF08F7FE37C041E06DE286E093E0B5DAF3
:1012300022273327A9012C193D094E095F0919A25C
:10124000CE0181967C01CA01B901A501940141D06A
:10125000605DF70162937F0121153105410551055C
:1012600091F7E114F10461F001900020E9F7319762
:10127000AF014E195F09B70186E093E00E94280193
:101280008091610290916202019690936202809334
:101290006102B4CFA701960119A2CE0181967C010B
:1012A000CA01B901A501940114D0605DF7016293F0
:1012B0007F01211531054105510591F7D2CFC8D8DD
:1012C00092CF8091000390910103009709F0C7C06D
:1012D0000895A1E21A2EAA1BBB1BFD010DC0AA1F77
:1012E000BB1FEE1FFF1FA217B307E407F50720F08F
:1012F000A21BB30BE40BF50B661F771F881F991F0A
:101300001A9469F760957095809590959B01AC0152
:10131000BD01CF010895EE0FFF1F881F8BBF0790FF
:10132000F691E02D19940F931F93CF93DF938230A2
:10133000910510F482E090E0E0912003F091210308
:1013400030E020E0B0E0A0E0309799F421153105BD
:1013500009F44AC0281B390B24303105D8F58A819D
:101360009B816115710589F1FB0193838283FE01E5
:1013700011C0408151810281138148175907E0F063
:101380004817590799F4109761F012960C93129729
:1013900013961C933296CF01DF91CF911F910F913D
:1013A00008950093200310932103F4CF21153105F4
:1013B00051F04217530738F0A901DB019A01BD0132
:1013C000DF01F801C1CFEF01F9CF909321038093A2
:1013D0002003CDCFFE01E20FF31F819391932250A2
:1013E000310939832883D7CF20911E0330911F0301
:1013F000232B41F4209112023091130230931F03EA
:1014000020931E0320911002309111022115310505
:1014100041F42DB73EB74091140250911502241BA0
:10142000350BE0911E03F0911F03E217F307A0F4C0
:101430002E1B3F0B2817390778F0AC014E5F5F4F2A
:101440002417350748F04E0F5F1F50931F0340933A
:101450001E03819391939FCFF0E0E0E09CCFCF9368
:10146000DF930097E9F0FC01329713821282A0917A
:101470002003B0912103ED0130E020E01097A1F4AA
:1014800020813181820F931F20911E0330911F0311
:101490002817390709F061C0F0931F03E0931E037A
:1014A000DF91CF910895EA01CE17DF07E8F54A8171
:1014B0005B819E0141155105B1F7E901FB83EA8388
:1014C00049915991C40FD51FEC17FD0761F4808134
:1014D00091810296840F951FE90199838883828107
:1014E00093819B838A83F0E0E0E012968D919C913A
:1014F00013970097B9F52D913C911197CD01029664
:10150000820F931F20911E0330911F032817390764
:1015100039F6309751F51092210310922003B093C1
:101520001F03A0931E03BCCFD383C283408151818C
:10153000840F951FC817D90761F44E5F5F4F8881EC
:101540009981480F591F518340838A819B819383DE
:1015500082832115310509F0B0CFF0932103E09388
:1015600020039ECFFD01DC01C0CF13821282D7CFB2
:101570004F925F926F927F928F929F92AF92BF92A3
:10158000CF92DF92EF92FF920F931F93CF93DF934F
:101590008C01009791F4CB01DF91CF911F910F91B6
:1015A000FF90EF90DF90CF90BF90AF909F908F9083
:1015B0007F906F905F904F90B6CEFC01E60FF71FC3
:1015C0009C0122503109E217F30708F4AAC0D9019F
:1015D000CD91DC911197C617D70718F1C530D10509
:1015E00070F0CE0104978617970748F0C61BD70BFB
:1015F0002297C193D1936D937C93CF0130DFC801C3
:10160000DF91CF911F910F91FF90EF90DF90CF90DE
:10161000BF90AF909F908F907F906F905F904F9012
:1016200008955B01AC1ABD0A4C018C0E9D1EA09161
:101630002003B0912103512C412CF12CE12C109767
:1016400031F580911E0390911F038815990509F0CB
:101650005CC04616570608F058C080911002909161
:101660001102009741F48DB79EB74091140250913A
:101670001502841B950BE817F90708F052C0F09388
:101680001F03E0931E03F90171836083B8CF8D912E
:101690009C91119712966C90129713967C901397C9
:1016A000A815B90559F56C0142E0C40ED11CCA1445
:1016B000DB0420F1AC014A195B09DA011296159797
:1016C00080F06282738251834083D9016D937C9351
:1016D000E114F10471F0D7011396FC93EE93129785
:1016E0008ECF22968C0F9D1FF90191838083F30189
:1016F000EFCFF0932103E093200381CF48165906E2
:1017000008F42C017D01D3019ACFCB010CDE7C01C2
:10171000009739F0AE01B80107D0C801A0DE8701FB
:101720006ECF10E000E06BCFFB01DC0102C0019046
:101730000D9241505040D8F70895FB01DC018D9186
:10174000019080190110D9F3990B0895FB01DC0178
:1017500001900D920020E1F7089510E0C6EFD0E06F
:1017600000E005C0802FFE01D6DD2196011DC73F98
:0C177000D10780E00807B1F7F894FFCF24
:10177C008A038A038A038A038A038A038A038A03F5
:10178C0000002203800000000000BD01280155016B
:10179C00090286016401780100000000C3042801DD
:0E17AC008C038B0368696768006C6F77000020
:00000001FF
